:020000022000DC
:1060000000000420756302005D6302005F6302000C
:106010006163020063630200656302000000000028
:1060200000000000000000000000000067630200A4
:1060300069630200000000006B6302006D630200F0
:106040005DC402006F63020055D70200452D0300B6
:106050006F6302006F6302006DD4020049E7020023
:1060600011FA020029FA020041FA02006F630200ED
:106070006F6302006F6302006F6302006F630200D0
:106080006F63020071890200F92D03006F63020043
:10609000B18902006F6302006DBD03006F630200EF
:1060A0006F6302006F6302006F6302006F630200A0
:1060B000C90403006F63020000000000000000003C
:1060C0006F630200E10403006F6302006F6302006C
:1060D0002D170300ED1E03006F6302006F630200C3
:1060E00039E402006F6302006F63020000000000E9
:1060F000000000006F630200000000008D1203002A
:10610000000000000000000000000000000000008F
:10611000000000000000000000000000000000007F
:10612000000000000000000000000000000000006F
:10613000000000000000000000000000000000005F
:10614000000000000000000000000000000000004F
:10615000000000000000000000000000000000003F
:10616000000000000000000000000000000000002F
:10617000000000000000000000000000000000001F
:10618000000000000000000000000000000000000F
:1061900000000000000000000000000000000000FF
:1061A00000000000000000000000000000000000EF
:1061B00000000000000000000000000000000000DF
:1061C00000000000000000000000000000000000CF
:1061D00000000000000000000000000000000000BF
:1061E00000000000000000000000000000000000AF
:1061F000000000000000000000000000000000009F
:10620000354936480A1A02D0072291438D4634494F
:1062100034480A1A06D00722914381F309880222E2
:1062200082F3148830483149314A00F044F831484B
:106230003149324A00F03FF831483249324A00F0E1
:106240003AF832483249334A00F035F83248334997
:10625000334A00F030F833483349344A00F02BF821
:1062600033483449344A00F026F83448344900228F
:1062700000F02CF833483449002200F027F8334866
:106280003349091A082902DB002202604160314AC1
:1062900090471F481F49884205D00268043003B464
:1062A000904703BCF7E700208646EC46002000211B
:1062B000294A9047FEE7884207D0521A05D0037852
:1062C00001300B700131013AF9D17047884202D098
:1062D00002700130FAE770470000042000E003205C
:1062E0000000042000000420D4050400D44900204C
:1062F000EC4E0020D4630200D4630200BAC803004D
:10630000D4050400D4490020D449002044CA030025
:1063100044CA030044CA030044CA030044CA030039
:1063200044CA030044CA030044CA0300D20504005F
:10633000EC0A0400EC4E0020EC4E0020EC4E002055
:106340003061002030610020306100203061002089
:10635000308100209D6302002D550300FEE7FEE71B
:10636000FEE7FEE7FEE7FEE7FEE7FEE7FEE7FEE705
:10637000704700BF1048804710484FF0070188431E
:1063800085460F4880470F48016841F4700101605D
:10639000BFF34F8FBFF36F8FFFF732BF0A480B4930
:1063A0000B4A884207D0521A05D0037801300B708F
:1063B0000131013AF9D170477163020000000420F5
:1063C000DDB6020088ED00E030CA0300C0490020BD
:0463D000D44900208C
:1063D40000B585B00190019B002B0AD0074B43F018
:1063E40001030393019B9B010293039B029898472B
:1063F40000E000BF05B05DF804FB00BF50CA030015
:1064040000B583B00190019B002B0AD04FF47A7041
:10641400FFF7DEFF019B013B0193019B002BF5D1AC
:1064240000E000BF03B05DF804FB08B512F008FA01
:1064340000BF08BD00B589B0039002910192019B91
:10644400002B33D00023079303230693029A079B60
:106454001344019A1946002012F0A2F90590079AF4
:10646400059B13440793019A059BD31A0193059B3B
:10647400002B13D10F4B1B7883F00103DBB2002BED
:1064840013D10120FFF7BCFF069B013B0693069B3B
:10649400002B03D1074B00221A7007E0054B0122A1
:1064A4001A70019B002BD1D100E000BF00BF09B0DE
:1064B4005DF804FBEC4E002000B585B0039002911A
:1064C400054B00934023054A0299039800F012F803
:1064D40000BF05B05DF804FB39640200F04E0020F3
:1064E40082B0019000BF02B0704782B0019000BF3B
:1064F40002B0704700B5A1B00590049103920293D5
:10650400049804F06FFE039B1593029B16930023DB
:10651400179300238DF8603000231993229B1A935C
:1065240000231F930FA91F9B0C22049804F034FF2F
:106534000C231F93119B1293BDF84030ADF84C30DF
:10654400BDF84230ADF84E3001238DF851309DF83E
:106554003C3003F00303DBB2012B26D10F9BC3F3C2
:1065640095231C939DF83C30C3F3C203DBB28DF832
:106574005030BDF83C30C3F38313DBB21B931B9B39
:106584009A0009A91F9B049804F006FF1B9B9B001B
:106594001F9A13441F9312AA09A915AB009313461B
:1065A4001B9A1C9801F020F82FE09DF83C3003F072
:1065B4000303DBB2022B28D1BDF83E30C3F38913A9
:1065C4009BB21E939DF83C30C3F3C203DBB28DF83B
:1065D40050301E9B082B28BF08231D9307A91F9B1F
:1065E4001D9A049804F0D8FE1F9A1D9B13441F9310
:1065F4001E9A1D9BD31A1E9315AB12AA07A81D99A8
:1066040001F094F81E9B002BE3D1049804F0F9FDEB
:1066140000BF21B05DF804FB82B00190019BDB68F0
:1066240001225A7100BF02B07047000000B583B068
:106634004FF0FF330193FFF7F8FE0421084800F000
:1066440085FE0190019B002B03DA064941200DF0E1
:10665400E5FC0348FFF7E0FF00BF03B05DF804FB6F
:1066640020CA030068CA030000B583B001900091FA
:10667400019B1B681B6800990198984700BF03B0F1
:106684005DF804FB00B583B00190019B1B685B6857
:106694000198984700BF03B05DF804FB00B583B0D0
:1066A4000190019B1B689B680198984700BF03B049
:1066B4005DF804FB82B001900B468DF80330019B1A
:1066C400DB689DF803201A7100BF02B0704782B0E6
:1066D4000190019BDB681B79184602B0704782B0B9
:1066E4000190019BDB6801225A7100BF02B0704720
:1066F40082B00190019BDB685B79184602B0704759
:1067040000B585B001900091019B002B01D10723B6
:106714002DE0194BFF229A60174B00221A60164B8A
:1067240000225A60144B0022C3F81824124B002292
:10673400C3F81424104B002283F82024009801F09D
:106744006DF80D4A019BC2F80C340C4804F0AEFC01
:106754000390039B002B01D0039B08E0084804F03E
:10676400D9FE084A084BD31ADB08029300231846C3
:1067740005B05DF804FB00BF9850002044C9030035
:10678400D4CA030020CA030058C90300024A034BB9
:10679400D31ADB081846704720CA030058C90300FF
:1067A40000B587B001900B468DF803309DF8033097
:1067B400002B1FD0FFF7EAFF04900023059313E09A
:1067C400059B9B000E4A13440393039B1B881A46A4
:1067D400019B1B689A4204D1019B059A1A6000230D
:1067E40009E0059B01330593059A049B9A42E7D37C
:1067F400052300E00023184607B05DF804FB00BF42
:10680400D449002000B585B001900B468DF80330C3
:106814009DF8032001AB11461846FFF7C1FF03465C
:10682400002B07D1019BDB00054A13440393039B10
:106834001B6800E00023184605B05DF804FB00BFA8
:1068440058C9030084B001900B468DF80330019BB6
:10685400DB00174A134402939DF80330013B032BDA
:106864001CD801A252F823F07D680200856802005A
:106874008D6802009768020002238DF80F3011E042
:1068840004238DF80F300DE0029B1B798DF80F3037
:1068940008E0029B5B798DF80F3003E000238DF84C
:1068A4000F3000BF9DF80F30184604B0704700BF8A
:1068B40058C9030084B00190009100238DF80F3073
:1068C400019B1B7803F00403DBB2002B24D0019B53
:1068D4001B78C3F30103DBB2012B02D0022B0CD0D3
:1068E40017E0009B1B68019A1288C2F38312D2B28C
:1068F4001344DA1C009B1A600BE0009B1B68019A8E
:106904005288C2F3891292B21344DA1C009B1A60B3
:1069140000BF01238DF80F309DF80F30184604B0E6
:106924007047000000B58BB00023ADF826303E4818
:1069340003F030FB3D4803F02DFB3D4B5B680493B3
:106944003B4B9B680693049A069B134002339B00BF
:10695400374A13440433089304AB19460898FFF7E5
:10696400A9FF0346002B09D0049A069B1340023367
:106974009B002F4A134404330893EDE700BF002320
:10698400079311E0049B5A1C0492069A1340079A39
:10699400920001A90A44264902339B000B445B6818
:1069A4001360079B01330793079B022BEAD99DF8D9
:1069B4000430C3F30103DBB2012B10D0022B1CD132
:1069C400BDF80A30ADF82630BDF80630C3F389139C
:1069D4009BB203339A08049B1344049313E0BDF859
:1069E4000A30ADF82630BDF80430C3F38313DBB2AC
:1069F4001A46049B1344049305E00E494FF4BF70F8
:106A04000DF00CFB00BF094803F0D0FA0590059B7C
:106A1400002B02D0049B064A5360BDF8263018466A
:106A24000BB05DF804FB00BFB0540020AC54002050
:106A340098500020E4CA030000B585B0002107483F
:106A440003F019FA0390039B0293029B83F3100350
:106A54000193019B184605B05DF804FBB454002073
:106A640010B588B00390029101920093039B1B0C14
:106A74000793FFF7E1FF0690FFF788FE0246079BA6
:106A8400934204D3284940F2A3100DF0C7FA069BA1
:106A94001904009B5A1C0A9B1340079A0A43234972
:106AA40002339B000B445A60204BD3F80C34009AF9
:106AB400911C0A9A01EA0204984702461B49A31C46
:106AC4009B000B445A60009A0A9B134002339B00BC
:106AD400164A134404330593039B03F00703D9B206
:106AE400059A137861F3C5031370019B03F00F0338
:106AF400D9B2059A138861F389131380029BC3F3F7
:106B04001501059A136861F39F231360059A13789E
:106B1400012161F301031370059A13786FF3820363
:106B2400137000BF08B010BDE4CA030098500020E1
:106B340000B58DB00390029113468DF80730039B86
:106B440003330A9301238DF8273000238DF81B307B
:106B54000DF11B03184602F05BF8404B1A68029BC8
:106B64001A603E4B9A683D4B59683C4B1B68CB1AE4
:106B7400134401330B9314E00121394803F0DAF98B
:106B8400FFF7D0FE07900799354803F0D3F9334B4C
:106B94009A68324B5968314B1B68CB1A1344013342
:106BA4000B930A9A0B9B9A42E6D89DF82730002B48
:106BB40048D0002305939DF80730002B17D09DF88B
:106BC4001430012262F301038DF814309DF814305F
:106BD40043F004038DF81430039B03F00F03DAB27F
:106BE400BDF8143062F38913ADF8143016E09DF843
:106BF4001430022262F301038DF814309DF814302E
:106C040043F004038DF81430039BC3F309039AB2D1
:106C1400BDF8163062F38F13ADF816300F4B1A68B7
:106C24000E4B9B68134002339B000C4A13440433FD
:106C34000893059A089B1A60084B1A680A9B134428
:106C4400064A13609DF81B30184601F0F7FF9DF8C3
:106C5400273018460DB05DF804FB00BF98500020A3
:106C6400B454002000B58BB00590049103920293B4
:106C74001F4B9B68079306AB012219460298FFF746
:106C840057FF0346002B24D0069B033309930023AC
:106C9400089311E0089B9B00039A1A44099B591C12
:106CA400099107990B401268114902339B000B4468
:106CB4005A60089B01330893089A029B9A42E9D3CD
:106CC400069A079B00931346029A04990598FFF7C6
:106CD400C7FE074B93F82034002B05D000BF00F00B
:106CE4002DF90346002BFAD100BF0BB05DF804FB6D
:106CF4009850002000B583B0019000910023002239
:106D040000990198FFF7AEFF00BF03B05DF804FBE4
:106D140000B587B0039002910192019B059305AAE7
:106D2400012302990398FFF79DFF00BF07B05DF8A8
:106D340004FB00B587B00390029101920093019B7C
:106D44000493009B059304AA022302990398FFF776
:106D540089FF00BF07B05DF804FB00B589B003905C
:106D6400029101920093019B0593009B06930A9B59
:106D7400079305AA032302990398FFF773FF00BF43
:106D840009B05DF804FB00B58BB003900291019249
:106D94000093019B0593009B06930C9B07930D9B0B
:106DA40008930E9B099305AA052302990398FFF7FC
:106DB40059FF00BF0BB05DF804FB000010B58CB0A8
:106DC400039002911346ADF80630534B9B680B9326
:106DD400BDF8063003339B0805A900221846FFF7C7
:106DE400A7FE0346002B00F08880059B0A93059BB1
:106DF40003330593484B9A6805990B9B0B40D31AB0
:106E040001339B000993BDF80630099A9A420ED3C8
:106E1400059A0B9B134002339B003F4A13440433EF
:106E2400BDF806200299184615F097FC17E0059A5C
:106E34000B9B134002339B00374A13440433099AD3
:106E44000299184615F089FC029A099BD118BDF8DD
:106E54000620099BD31A1A46304815F07EFC2E4BA7
:106E6400D3F80C340A9A911C0B9A01EA020498474D
:106E740002462949A31C9B000B445A60039B1B0C2C
:106E84000893FFF7D9FD0790079B19040A9B5A1C26
:106E94000B9B1340089A0A431F4902339B000B447F
:106EA4005A600A9A0B9B134002339B001A4A1344FC
:106EB40004330693039B03F00703D9B2069A1378AD
:106EC40061F3C5031370069A13886FF38F1313804D
:106ED400BDF80630C3F3090399B2069A538861F3E7
:106EE4008F135380069A1378022161F30103137000
:106EF400069A13786FF382031370074B93F82034C8
:106F0400002B05D000BF00F019F80346002BFAD17E
:106F140000BF0CB010BD00BF98500020A45000204A
:106F2400054B5A68044B1B689A420CBF012300238B
:106F3400DBB21846704700BF9850002000B599B0E6
:106F4400FFF7EEFF0346002B01D00023BEE19B4B6D
:106F54000022C3F81824BFF34F8F00BF974B5B6820
:106F64000493964B9B681093049A109B134002332E
:106F74009B00924A13440433119300231793002374
:106F8400169300230F9304AB19461198FFF792FC54
:106F94000346002B19D0894BD3F81834002B14D195
:106FA400864B1A68049B9A4205D8844B1B68834A13
:106FB400536000238AE1049A109B134002339B0020
:106FC4007E4A134404331193DDE70023159311E043
:106FD400049B5A1C0492109A1340159A920001A91A
:106FE4000A44764902339B000B445B681360159B8B
:106FF40001331593159B022BEAD99DF8043003F055
:107004000303DBB2022B40F09C80BDF80630C3F3CF
:1070140089139BB20D93BDF80630C3F389139BB259
:10702400502B28BF50239BB20C930C9BC3F3090332
:107034009AB2BDF8063062F38F13ADF806300C9B9C
:107044000C330B939DF80430C3F3C203DBB20F93EC
:107054000B995B4804F035F81790179B002B00F050
:10706400D180179804F0BEF801A9169B0C2217983A
:1070740004F074F9169B0C331693049BDA43109BAB
:10708400134001339B000A930C9A0A9B9A4242D9FB
:107094000A9B002B08D0049A109B134002339B00D8
:1070A400464A1344043300E0464B08930A9B002BE2
:1070B40002D00A9BDBB201E00C9BDBB28DF81F30DF
:1070C4000A9B002B01D03F4B00E0002306930A9B50
:1070D400002B06D00C9BDAB20A9BDBB2D31ADBB2CC
:1070E40000E000238DF817309DF81F20169B0899A7
:1070F400179804F033F99DF81F30169A1344169329
:10710400069B002B16D09DF81720169B06991798FE
:1071140004F024F90EE0049A109B134002339B0000
:10712400264A134404330993169B0C9A0999179819
:1071340004F014F90D9B03339A08049B134404933D
:1071440060E09DF8043003F00303DBB2012B59D156
:10715400BDF80430C3F38313DBB2062B28BF062328
:10716400DAB2BDF8043062F38913ADF80430BDF827
:107174000430C3F38313DBB203330E939DF804305E
:10718400C3F3C203DBB20F930E9B9B0019460C485A
:1071940003F097FF1790179B002B33D0179804F038
:1071A40021F801A9169B0C22179804F0D7F8169B16
:1071B4000C331693002315931BE000BF9850002056
:1071C40044C90300A4500020049B5A1C0492109A42
:1071D400134002339B003F4A1344191D169B04229B
:1071E400179804F0BBF8169B04331693159B0133D0
:1071F4001593BDF80430C3F38313DBB21A46159B11
:107204009342E1D3179B002B40D0324BD3F8103478
:107214001493304BD3F81834002B1BD0179803F079
:10722400F0FF4DE000238DF84F301498FFF760FA1B
:107234000346002B02D001238DF84F309DF84F30C8
:10724400002B03D017991498FFF70EFA149BDB68F0
:107254001B681493149B002BE4D1179803F0D1FFFF
:1072640000238DF803300DF10303184601F0D0FC20
:10727400184BD3F81834002B02D1049B154A5360E1
:107284009DF80330184601F0D9FC19E0114BD3F8EE
:107294001034129306E01298FFF700FA129BDB6891
:1072A4001B681293129B002BF5D10B4A0B4BD31A7C
:1072B400DB081B0443F0020309491846FFF71AFDD3
:1072C400FFF72EFE034683F00103DBB2184619B024
:1072D4005DF804FB98500020C8C9030058C9030096
:1072E40048CB030000B585B00023039323E0164B7D
:1072F400D3F81034029301238DF807300FE002987D
:10730400FFF7E5F903461A46039B934203D1002392
:107314008DF8073006E0029BDB681B680293029B32
:10732400002BECD19DF80730002B01D0039B07E024
:10733400039B01330393039B092BD8DD4FF0FF33E9
:10734400184605B05DF804FB9850002000B585B0E0
:1073540001900B468DF80330FFF7C4FF0390039BA5
:10736400B3F1FF3F01D1039B22E0039BDBB219463B
:107374000198FFF79FF9104BD3F81034002B08D174
:107384000D4A019BC2F81034019BDB6800221A608D
:107394000DE0094BD3F81034DA68019BDB681268FE
:1073A4001A60054BD3F81034DB68019A1A60039B0A
:1073B400184605B05DF804FB9850002000B583B072
:1073C4000D4BD3F8103401930B4B012283F8202486
:1073D40009E00198FFF783F90198FFF753F9019B3E
:1073E400DB681B680193019B002BF2D100BF00BF37
:1073F40003B05DF804FB00BF9850002000B58DB0C9
:10740400059004912F4B1B68049AB2FBF3F3049389
:107414002D4B1B68049AB2FBF3F30B930B9B2B4A83
:10742400A2FB0323DB0A0A930A9B4FF4616202FB6B
:1074340003F30B9AD31A0B930B9B254AA2FB03234A
:107444005B090993099A13461B019B1A9B001A4670
:107454000B9B9B1A0B931C4B1A68049BB3FBF2F116
:1074640002FB01F29B1A0893089B4FF47A7202FB09
:1074740003F2154B1B68B2FBF3F30793089B4FF41D
:107484007A7202FB03F2104B1B68079901FB03F3AA
:10749400D31A4FF47A7202FB03F20B4B1B68B2FB54
:1074A400F3F30693069B0293079B01930B9B0093B4
:1074B400099B0A9A0749059802F0B4FE00BF0DB073
:1074C4005DF804FBC0540020BC540020C5B3A29155
:1074D40089888888C4CB030010B584B003900291D6
:1074E400039BDB88002B0AD0039BDB881A461F4BC7
:1074F400009313461E4A1F49029802F093FE039B11
:107504001B7A052B2ED0039B5B7A002B12D0039B96
:107514009B881A46039B1B7A19461046FFF792F97B
:1075240003461A46144B53F822301A46134902985C
:1075340002F078FE039B1B6819460298FFF75EFF72
:10754400039B1B7A1A460E4B53F82240039B9B88DD
:1075540000211846FFF756F90346224609490298C6
:1075640002F060FE00BF04B010BD00BF7CCB03007E
:107574008CCB0300E0CB0300F0490020F8CB0300E0
:10758400DC490020FCCB030000B585B003900291D8
:1075940013468DF80730039B1B7A052B0FD0039BF2
:1075A4005B7A002B06D00D4B1B681A460C490298D7
:1075B40002F038FE0B49029802F034FE07E09DF811
:1075C4000730002B03D00749029802F02BFE0298E3
:1075D40002F006FE00BF05B05DF804FBF049002090
:1075E400F8CB030008CC030030B58BB007900691AC
:1075F400059204930E9B1B7B8DF827300E9B002273
:107604001A730E990498FFF767FF059B062B7FD822
:1076140001A252F823F000BF39760200437602003B
:10762400537602006776020085760200AD7602008A
:10763400DD76020007990E9802F0F4FD69E0069BDE
:107644001B681A4607990E9802F0ECFD61E0069B50
:107654001A68069B04331B6807990E9802F0E2FD32
:1076640057E0069B1A68069B04331968069B083387
:107674001B6800930B4607990E9802F0D3FD48E06F
:10768400069B1968069B04331868069B08331B681D
:10769400069A0C3212680192009303460A4607992F
:1076A4000E9802F0BFFD34E0069B1868069B043375
:1076B4001C68069B08331B68069A0C3212680699EC
:1076C40010310968029101920093234602460799FA
:1076D4000E9802F0A7FD1CE0069B1C68069B043371
:1076E4001D68069B08331B68069A0C3212680699BB
:1076F40010310968069814300068039002910192D1
:1077040000932B46224607990E9802F08BFD00E069
:1077140000BF00220E990498FFF736FF0E9B9DF8D8
:1077240027201A7300BF0BB030BD00BF00B587B06F
:107734000390029101920093029B082B60D8009B56
:107744001B7B8DF81330009B00221A73009901985B
:10775400FFF7C2FE0023059314E0059A029B9A42A8
:1077640009D2039A059B13441B781A4626490098AC
:1077740002F058FD03E02549009802F053FD059BF3
:1077840001330593059B072BE7D92149009802F0A3
:1077940049FD0023059326E0059A029B9A421BD2D9
:1077A400039A059B13441B788DF812309DF8123010
:1077B4007E2B0AD89DF81230184614F0C9FF0346F0
:1077C400002B02D09DF8123000E02E231A461149F6
:1077D400009802F027FD03E00F49009802F022FD13
:1077E400059B01330593059B072BD5D901220099ED
:1077F4000198FFF7C9FE009B9DF813201A7300E05F
:1078040000BF07B05DF804FB0CCC030014CC0300EC
:1078140018CC03001CCC030020CC030082B00190E0
:107824000A4B01221A6007E0019B5B080193074B96
:107834001B685B00054A1360019B054A9342F3D819
:10784400044A019B136000BF02B07047C05400207B
:1078540040420F00BC5400202DE9F04F93B0099032
:1078640000238DF84730AAE05B4B1A689DF8473037
:10787400DB0013441093109B1B781C464FF001024D
:107884004FF00003A4F12001C4F1200003FA04FB2B
:1078940002FA01F14BEA010B22FA00F04BEA000B69
:1078A40002FA04FACDE90EAB4C4BD3E90001DDE951
:1078B4000E2300EA020400940B400193DDE9003436
:1078C400234377D0DDE90E23D1430291DB430393B5
:1078D400424BD3E90023DDE90245214611400491DE
:1078E40029460B4005933D4BDDE90412C3E9001220
:1078F400109B1B78184605F061FD03468DF8373060
:10790400109B1B781C464FF001024FF00003A4F1BA
:107914002001C4F1200003FA04F702FA01F10F4335
:1079240022FA00F0074302FA04F62D4BD3E90023B0
:1079340006EA020106913B4007939DF837004FF099
:107944000001109B1B781C46A4F12003C4F1200203
:1079540001FA04F900FA03F349EA030920FA02F2EE
:1079640049EA020900FA04F8DDE906344C4508BF87
:1079740043451FD19DF83720109B5B78012B0CBF2A
:1079840001230023DBB29A420CBF01230023DBB2A4
:10799400DAB24FF00003CDE90A23109B5B68002B99
:1079A40008D0109B5C68109B1A789DF82830194603
:1079B4001046A0479DF8473001338DF84730094BF6
:1079C4001A789DF847309342FFF44EAF00BF00BFD2
:1079D40013B0BDE8F08F00BFC4540020F854002059
:1079E400F0540020C85400202DE9704F90B00B9043
:1079F4000B468DF82B304FF001024FF000030B9E25
:107A0400A6F12001C6F1200003FA06F502FA01F1FD
:107A14000D4322FA00F0054302FA06F4CDE90E45BF
:107A2400384B184601F05EF80D900D9B002B64D185
:107A3400354BD3E90001DDE90E2300EA020400948A
:107A44000B400193DDE90034234341D10B9805F049
:107A5400B5FC0346002B0FD02C4BD3E90001DDE924
:107A64000E2340EA020402940B430393274BDDE9FF
:107A74000212C3E9001213E0DDE90E236FEA020AE1
:107A84006FEA030B214BD3E900230AEA02010491B4
:107A94000BEA030305931D4BDDE90412C3E900124D
:107AA400194BD3E90001DDE90E2340EA02040694F0
:107AB4000B430793144BDDE90612C3E90012114886
:107AC400134B1B680022194600F0DAFF0D9015E0F5
:107AD400DDE90E236FEA02086FEA03090A4BD3E9D2
:107AE400002308EA0201089109EA03030993064BFB
:107AF400DDE90812C3E9001200E000BF10B0BDE8E0
:107B0400708F00BFD0540020F8540020F05400209F
:107B1400CC54002000B58BB003900B4601928DF835
:107B24000B30019B042B01D8072362E005F0A6F972
:107B3400034683F00103DBB2002B09D005F04CF9B6
:107B44000990099B0893089B002B01D0089B50E0E7
:107B54002A4A039B13602A4A9DF80B301370294A62
:107B6400019B136028494FF000024FF00003C1E964
:107B7400002326494FF000024FF00003C1E900231F
:107B84002AE09DF80B30DB00039A1344079305ABFE
:107B940000210A461A800A469A7003238DF814308D
:107BA400079B9A789DF8163062F341038DF81630DE
:107BB400079BDB788DF81530079B1B78184605ABBF
:107BC400134A194605F0BAFA0990099B0693069BD5
:107BD400002B01D0069B0CE09DF80B305A1E8DF84B
:107BE4000B20002BCDD10B4A00210B4800F018FFCD
:107BF400034618460BB05DF804FB00BFC4540020D4
:107C0400C8540020CC540020F0540020F854002024
:107C1400ED7902005D78020024CC030000B583B046
:107C2400114B1B68002B03D11049BA200CF0F6F954
:107C3400002301930CE00C4B1A68019BDB001344F6
:107C44001B780121184605F0F3FA019B01330193D7
:107C5400074B1B781A46019B9342ECD3002318462A
:107C640003B05DF804FB00BFC454002028CC03001B
:107C7400C854002000B583B0124B1B68002B03D1FD
:107C84001149C8200CF0CAF9002301930BE00D4BF5
:107C94001A68019BDB0013441B78184605F050FB5F
:107CA400019B01330193094B1B781A46019B9342B4
:107CB400EDD3074B184600F015FF0346184603B0F2
:107CC4005DF804FBC454002028CC0300C8540020F1
:107CD400D054002000B585B003468DF80730194B09
:107CE4001B789DF807209A4203D91749D7200CF036
:107CF40095F9164B1B68002B03D11349D8200CF0BF
:107D04008DF9124B1A689DF80730DB001344039376
:107D1400039B1B78184605F051FB03468DF80B3086
:107D24009DF80B30039A5278012A0CBF01220022DD
:107D3400D2B293420CBF01230023DBB2184605B034
:107D44005DF804FBC854002028CC0300C454002070
:107D540086B003900291019201238DF817309DF8AB
:107D64001730214A039B13601F4A029B53601E4A2B
:107D7400019B9360039B44F20102934213D0039B43
:107D840044F20202934221D1019B174AD360164B5D
:107D9400DB681B881A46144B9A61134BDB685B68DB
:107DA400114AD36112E0019B0F4A13610E4B1B6908
:107DB4009B680D4A53610C4B1B691B680A4A93610B
:107DC400094B1B695B68084AD36100BF72B600BFE8
:107DD40000BF9DF81730DBB2002BFAD162B600BFAA
:107DE40000BF06B0704700BF0055002000B583B047
:107DF40002900091019244F2010071466A4600F03B
:107E040003F803B000BD00BF30B58BB007900691F6
:107E1400059272B600BFFFF7D1FA00BFFFF78EF8E4
:107E24000346002BFAD1079B44F2020293422FD05F
:107E3400079B44F20202934269D8079B44F2010271
:107E4400934237D0079B44F2010293425FD8079BC9
:107E5400012B05D0079B41F2010293420CD056E05E
:107E6400394A3A4BD31ADB081B0443F0010338495F
:107E74001846FEF73FFF57E0334A344BD31ADB086A
:107E84001B0443F0010333491846FEF733FF4BE06C
:107E9400059B09932C4A2D4BD31ADB081B0443F092
:107EA4000100099B5B681A46099B1B882A49FEF757
:107EB40040FF39E0059B0893234A244BD31ADB087F
:107EC4001B0443F00104089B9D68089B9B681846AB
:107ED40003F09AFB03461846089B5B681946089B07
:107EE4001B68069A02920193009103462A461B4995
:107EF4002046FEF748FF144A144BD31ADB081B0430
:107F040043F0010316491846FEF7F4FE0CE00E4A4E
:107F14000E4BD31ADB081B0443F00103069A1149E4
:107F24001846FEF7F5FE00BF0F4B1B6803F0010374
:107F3400002B00D000BE059A06990798FFF708FFAA
:107F440000BF0BB030BD00BFC8C9030058C903004F
:107F540084CC0300A4CC0300C8CC0300E4CC03000D
:107F64000CCD030020CD0300F0ED00E082B0034609
:107F74008DF807309DF8073003F01F0205499DF97D
:107F840007305B09012000FA02F241F8232000BF08
:107F940002B0704700E100E082B003468DF807307C
:107FA4009DF8073003F01F0206499DF907305B096D
:107FB400012000FA02F2203341F8232000BF02B06E
:107FC400704700BF00E100E082B003468DF807303F
:107FD4009DF8073003F01F0206499DF907305B093D
:107FE400012000FA02F2403341F8232000BF02B01E
:107FF400704700BF00E100E082B003468DF807300F
:108004009DF8073003F01F0206499DF907305B090C
:10801400012000FA02F2603341F8232000BF02B0CD
:10802400704700BF00E100E082B0034600918DF884
:1080340007309DF90730002B0CDA009BDAB20C49AB
:108044009DF8073003F00F03043B5201D2B20B44F6
:108054001A7609E0009BDAB206499DF9073052010D
:10806400D2B20B4483F8002300BF02B0704700BFB4
:1080740000ED00E000E100E000B585B00190019B57
:10808400002B0AD0074B43F001030393019B9B0190
:108094000293039B0298984700E000BF05B05DF887
:1080A40004FB00BF40CD030000B583B00190064A35
:1080B400019BC2F8083506211120FFF7B5FF00BF68
:1080C40003B05DF804FB00BF0010014008B50D4B80
:1080D4004FF48032C3F844230A4B4FF48032C3F880
:1080E40004231120FFF788FF1120FFF73FFF054B02
:1080F40001221A602F20FFF7BFFF034B01221A70E1
:1081040000BF08BD001001403E56002008B51120F4
:10811400FFF742FF0E4B4FF48032C3F848230C4B59
:108124004FF48032C3F80823094B01225A602F20F0
:10813400FFF7A2FF064B01229A60064B00221A6049
:108144002F20FFF799FF044B00221A7000BF08BDCF
:1081540000100140305600203E560020024BD3F858
:1081640004351846704700BF0010014082B00190EA
:108174000091019A009BD31A23F07F43184602B062
:108184007047000082B00190034A019BC2F8403559
:1081940000BF02B0704700BF0010014086B00190DC
:1081A400284B1B68002B03D1264A019B136045E032
:1081B400019B1A68234B1B681B689A4210D8214BF9
:1081C4001B681968019B1A681E4B1B688A1A1A607F
:1081D4001C4B1A68019BDA611A4A019B13602DE05B
:1081E400019B1B680393174B1B680593154B1B6876
:1081F400049309E0049B1B68039AD31A0393049B1A
:108204000593049BDB690493049B002B04D0049B1B
:108214001B68039A9A42EDD8049B002B05D0049B5B
:108224001A68039BD21A049B1A60019B039A1A6072
:10823400019B049ADA61059B019ADA6100BF06B0DA
:10824400704700BF2C56002000B587B001902A4B20
:108254001B680393284B1B680593059B049308E054
:10826400049A019B9A4208D0049B0593049BDB6902
:108274000493049B002BF3D100E000BF049B002B6C
:1082840001D1002333E0059A049B9A4214D11A4B7E
:108294001B68DB69184A1360174B1B68002B0BD152
:1082A400164B01229A60164B00221A60154B0122CC
:1082B4001A702F20FFF7E0FE049B1B680293049BB7
:1082C400DA69059BDA61059BDB690493049B002B47
:1082D40005D0049B1A68029B1A44049B1A60064B3F
:1082E4001B68039A9A4214BF01230023DBB2184689
:1082F40007B05DF804FB00BF2C56002000100140BD
:10830400305600203F56002008B51120FFF75CFED0
:1083140000BF08BD08B51420FFF756FE00BF08BD16
:1083240000B583B00190019B5B69019A9269104684
:10833400984700BF03B05DF804FB000000B585B0AA
:108344002B4B1B68002B4ED000230193FFF706FF35
:108354000246284B1B6819461046FFF707FF029098
:10836400234B1B6803931DE0039B1B68029A9A42EC
:108374001CD3039B1B68029AD31A0293039B1B68AA
:10838400019A13440193039B0093039BDB690393BA
:10839400009B1B7C002B05D0009B00221A740098C4
:1083A400FFF7BEFF039B002BDED100E000BF124BA2
:1083B4001A78124B1B789A420CD1104B1B7801335C
:1083C400DAB20E4B1A700D4B1B78022B02D10B4BF9
:1083D40000221A70094B1B781946094A019B42F87E
:1083E4002130FFF797FF00BF05B05DF804FB00BF25
:1083F4002C560020305600203C5600203D560020CC
:108404003456002082B00190184B1A78184B1B7810
:108414009A4223D0154B1B780133DAB2134B1A70EE
:10842400124B1B78022B02D1104B00221A700F4BF7
:108434001B781A460F4B53F82220019B1A60019BAC
:108444001A680D4B1B6813440B4A13600A4B1B68D4
:1084540023F07F43084A1360012303E0019B0022B9
:108464001A600023184602B0704700BF3C56002033
:108474003D560020345600203056002088B003902A
:10848400029101920023079338E0204B1B68069366
:10849400069B1B68039A9A4206D2069B1A68039BA2
:1084A400D21A069B1A602EE0069B1B68039AD31A05
:1084B4000393069B1B68079A13440793069B0022A9
:1084C4001A60124B1B680593069BDB690F4A136005
:1084D400069BDB68002B11D0029A079B134423F000
:1084E4007F42069B5A60069BDA68069B9A60019B52
:1084F4001A68069BDA61019B059A1A60034B1B6894
:10850400002BC2D100BF00BF08B070472C5600201A
:1085140000B589B0019000238DF81F30664B1B68AD
:108524000593AAE0019B002B05D0019B0693069BB3
:10853400DB69019361E0614B1B781A4613465B00CB
:108544001344DB005D4A1344043304935B4B1B78F0
:108554000133DAB2594B1A70584B1A78574B9B783F
:108564009A4202D1554B00221A70049B5B68069311
:10857400049B1B78032B1ED0032B7EDC012B1FD006
:10858400022B7AD1049B5B681846FFF75DFE034615
:10859400002B02D001238DF81F30069B00221A7491
:1085A4006BE0454B1B680393039B00221A74039BE7
:1085B400DB69414A1360404B1B68002BF1D15CE03E
:1085C40000BF069B1B7C002B00D056E0049B9A68DE
:1085D400069B5A60049BDA68069B9A60049B1A699E
:1085E400069BDA60049B5A69069B9A61344B1B789C
:1085F400002B02D0069B00225A60069B5A68314B1E
:108604001B68D31A23F07F432F4A93420ED8069B4C
:108614005B682C4A126811461846FFF7A7FD02460C
:10862400069B9B681A44069B1A6017E0254B1A6840
:10863400069B5B6819461046FFF798FD0290069B5F
:108644009B68029A9A4206D2069B9A68029BD21AA7
:10865400069B1A6002E0069B00221A60069B002219
:108664005A60069B00229A60069B01221A74069B9C
:108674000022DA610698FFF791FD019B002B7FF43D
:1086840051AF0E4B1A780D4B5B789A427FF44AAF88
:108694009DF81F30002B04D1074B1B68059A9A42A2
:1086A40001D0012300E0002303F00103DBB21846EC
:1086B40009B05DF804FB00BF2C56002020550020B3
:1086C4003F56002030560020FEFF7F0010B588B0D2
:1086D4000190274B1B68002B44D0254B1B681B685B
:1086E4000793FFF73BFD0690224B1B680593059902
:1086F4000698FFF73BFD0346033304931E4B1B7898
:1087040083F00103DBB2002B01D0FFF7DFFC049AF6
:10871400079B934238BF1346059A13440593059B60
:1087240023F07F4305930598FFF72CFDFFF716FD13
:10873400039006990398FFF719FD0346DC1C06997C
:108744000598FFF713FD03469C420DD9FFF706FD7C
:1087540003461846FFF716FD2F20FFF78DFCFFF7A1
:10876400D3FD01E0FFF7D2FC00BF08B010BD00BF8D
:108774002C560020305600203E56002000B587B00D
:108784000023019300238DF81730194B1B680493C1
:10879400184B1B6803936B461846FFF733FE0346DA
:1087A4008DF80B309DF80B30002B08D0009B01AAEC
:1087B40004991846FFF762FE01238DF81730019BD8
:1087C4001846FFF7A5FE0346002B02D001238DF8BF
:1087D40017309DF81730002B02D00398FFF776FF6F
:1087E400054B00221A7000BF07B05DF804FB00BF00
:1087F400305600202C5600203F56002082B00346FD
:108804008DF80730034A9DF80730537000BF02B05B
:10881400704700BF2055002084B00190144B5B7852
:1088240001338DF80F30124B9B789DF80F209A423C
:1088340002D100238DF80F300D4B1B789DF80F20CB
:108844009A4201D100230FE0019B9DF80F201A707A
:10885400074B5B781A4613465B001344DB00044A5B
:10886400134404330293029B184604B0704700BFBC
:108874002055002000B589B0039002910192009325
:108884000023079300238DF816300DF116031846C4
:1088940000F0BEF90DF117031846FFF7BDFF06906F
:1088A400069B002B02D10423079318E0069B0122A8
:1088B4001A70069B039A5A60FFF750FC0246069B07
:1088C4009A60069B029ADA60069B019A1A61069BDB
:1088D400009A5A619DF817301846FFF78FFF9DF8EC
:1088E4001630184600F0AAF9079B002B01D1FFF7B8
:1088F40011FD079B184609B05DF804FB00B587B06D
:1089040001900B468DF803300023059300238DF866
:108914000E300DF10E03184600F07AF90DF10F0335
:108924001846FFF779FF0490049B002B02D104231F
:1089340005930BE0049B9DF803201A70049B019A95
:108944005A609DF80F301846FFF758FF9DF80E3017
:10895400184600F073F9059B002B01D1FFF7DAFCF0
:10896400059B184607B05DF804FB000008B50E4BE4
:108974000022C3F840210C4B0022C3F844210A4BC7
:108984000022C3F84821084B0022C3F84C21064BAF
:108994000022C3F80021044B0022C3F80421FFF78E
:1089A400CDFC00BF08BD00BF0010014008B5FFF7B3
:1089B400E5FE00BF08BD000008B5FFF7A7FB134B99
:1089C40000221A70114B00225A70104B0B229A701D
:1089D4000F4B00221A600F4B00221A700E4B00221C
:1089E4001A701420FFF708FB06211420FFF71CFB64
:1089F4001420FFF7BBFA0020FFF756FBFFF7AEFB8E
:108A04000346064A13600023184608BD205500207B
:108A14002C5600203C5600203D56002030560020A5
:108A240086B003900B4601928DF80B30134B9B7864
:108A3400002B01D108231EE0019B002B01D1072349
:108A440019E0039B002B01D1072314E0039B1B684F
:108A54001B7C002B01D008230DE0039B1B680593AE
:108A6400059B00221A74059B9DF80B205A74059BE4
:108A7400019A5A610023184606B070472055002019
:108A840000B587B0039002910192039B0593144BA8
:108A94009B78002B01D108231EE0039B002B01D1FE
:108AA400082319E0029B042B01D8072314E0059B3B
:108AB4005B69002B01D108230EE0059B5B7C012B35
:108AC40001D1029B00E000230493019B049A0299C4
:108AD4000598FFF7CFFE0346184607B05DF804FB80
:108AE4002055002000B585B00190019B03930D4BE8
:108AF4009B78002B01D1082310E0019B002B03D0AD
:108B0400039B5B69002B01D1082307E0039B002230
:108B14001A7402210398FFF7F1FE0346184605B0C4
:108B24005DF804FB2055002082B0EFF3108300931E
:108B3400009B019372B600BF019B184602B07047B8
:108B440062B600BF00BF704700B585B00190FFF763
:108B5400EBFF0390164B9B68002B1BD1144B012297
:108B64009A60144BD3F88020134B1340104A1360BF
:108B7400104B114AC3F880200E4BD3F884300C4AB2
:108B840053600C4B4FF0FF32C3F88420019B00224A
:108B94001A7002E0019B01221A70039B002B01D181
:108BA400FFF7CEFF0023184605B05DF804FB00BFB5
:108BB4004056002000E100E0FC06FFBD00B585B092
:108BC40003468DF80730104B9B68002B16D09DF898
:108BD4000730002B12D1FFF7A7FF03900B4A0A4B73
:108BE4001B681360094A084B5B685360064B0022FC
:108BF4009A60039B002B01D1FFF7A2FF00231846C4
:108C040005B05DF804FB00BF4056002000E100E021
:108C140000B583B0019000F02BF80346012B03D07C
:108C2400054943200BF0FAF90198FFF78DFF00BFC7
:108C340003B05DF804FB00BF48CD030000B583B06A
:108C440003468DF8073000F013F80346012B03D0D8
:108C5400064951200BF0E2F99DF807301846FFF75A
:108C6400ADFF00BF03B05DF804FB00BF48CD0300B7
:108C740084B0EFF305830193019BC3F308030393CB
:108C8400039B002B0DD1EFF314830093009B0293FD
:108C9400029B03F00103002B0CBF01230023DBB272
:108CA40000E00123184604B0704782B00190019B94
:108CB40003F00303002B0CBF01230023DBB218468F
:108CC40002B0704700B585B00190002303930EE015
:108CD4000B4A039B52F82330002B05D0084A039B10
:108CE40052F8233001989847039B01330393039B65
:108CF400032BEDD900BF00BF05B05DF804FB00BF36
:108D04005856002082B001900091019B1B78013BD2
:108D1400052B61D801A252F823F000BF398D02005F
:108D2400418D0200678D0200998D0200B98D020009
:108D3400D58D0200009B00221A704EE0009B012298
:108D44001A70019B1A89009B9A81019B9A88009B47
:108D5400DA81019BDA68009B9A60009B00221A74F6
:108D64003BE0009B02221A70019B1A89009B9A81A6
:108D7400019B9A88009BDA81019BDA68009B9A60C8
:108D8400019B9B7D062B0CBF01230023DAB2009BC1
:108D94001A7422E0009B03221A70019BDA88009B5C
:108DA4009A81019B1A89009BDA81019BDA68009BF6
:108DB4009A6012E0009B04221A70019BDA88009BDF
:108DC4009A81009B0022DA81009B00229A6004E0D1
:108DD400009B05221A7000E000BF00BF02B070477C
:108DE40084B001900091019B0393039A009B9A42E3
:108DF40006D2039B1B68B3F1FF3F01D0012300E0BF
:108E0400002303F00103DBB2184604B0704782B0BC
:108E14000190019B5B8803339B00019A134418461D
:108E240002B0704700B583B0019000910198FFF73C
:108E3400EEFF0246009B934201D202230CE0019B09
:108E44009B884FF6FF72934203D0019B1B88002B33
:108E540001D1012300E00023184603B05DF804FBB0
:108E640000B583B00190019B002B13D00D4BDB6840
:108E74001A46019B93420DD30A4B1B691A46019B68
:108E8400934207D80198FFF710FF0346002B01D047
:108E9400012300E0002303F00103DBB2184603B012
:108EA4005DF804FBC049002084B0019000910A23BE
:108EB40003930023ADF80A3027E0BDF80A201749D0
:108EC40013469B0013449B000B4404331B68009A15
:108ED4009A4215D9BDF80A20104913469B00134441
:108EE4009B000B4404331B6803F58053009A9A4299
:108EF40006D200230393019BBDF80A201A8008E0E0
:108F0400BDF80A300133ADF80A30BDF80A30012B40
:108F1400D3D9039B184604B0704700BF785600208D
:108F240082B001900091009B9B7D022B09D9019B8B
:108F34001A89009BDB8813449BB203339AB2019BCA
:108F44001A81019B5A89009BDB88D31A9BB2033B8D
:108F54009AB2019B5A8100BF02B0704700B583B03A
:108F6400074B1B681946002300930823054A06484B
:108F740001F0FCFC0346184603B05DF804FB00BF97
:108F8400A056002000CE0300C049002000B585B0E3
:108F940003900399002300930823044A044801F032
:108FA400E5FC0346184605B05DF804FB08CE030053
:108FB400C049002000B585B003460091ADF80630E5
:108FC400BDF80620244913469B0013449B000B4420
:108FD40004331B6803F580530293009B1B680393BF
:108FE400039B002B04D00398FFF711FF039026E0A6
:108FF400BDF80620184913469B0013449B000B44FC
:1090040004331B680833039319E002990398FFF7AC
:1090140009FF0346022B10D0022B10DC002B02D0D8
:10902400012B05D00BE0009B039A1A6001230EE08C
:109034000398FFF7ECFE039001E0002307E0029998
:109044000398FFF7CDFE0346002BDED1002318461C
:1090540005B05DF804FB00BF7856002000B585B06C
:1090640001900091019B5B681846FFF7F9FE0346E7
:10907400002B19D0019B1A89244B1B899A4213D1C6
:10908400019B1A68019B5B689B689A420CD1019B07
:109094005B6819460098FFF707FF0346002B0CBFD7
:1090A40001230023DBB22CE0009B00221A8023E082
:1090B4000023029310E0029B0393039B9A68019B95
:1090C4001B689A4208D1029A019B5A600F4B1A8975
:1090D400019B1A81012314E0009B1B8802AA1146FC
:1090E4001846FFF767FF0346002BE4D1009B1B885B
:1090F40001339AB2009B1A80009B1B88012BD7D99D
:109104000023184605B05DF804FB00BFA8560020F4
:1091140000B587B00390029101920093304B1B7805
:10912400DBB283F00103DBB2002B01D0022353E056
:10913400019B002B02D0009B002B48D105234BE060
:10914400009B9B881946274A0B469B000B449B00B7
:1091540013441B78002B33D124E0009B1B68059338
:10916400039B002B06D0059B9A88039B1B889A427D
:1091740000D017E0029B002B06D0059B1A88029BA7
:109184001B889A4200D00DE0059B9A68019B1A60E7
:10919400009B1A68019B5A60134B1A89019B1A8120
:1091A400002319E0009B9B88009A11461846FFF79C
:1091B40001FF0346002BD0D1009B00221A6000E07F
:1091C40000BF009B9B8801339AB2009B9A80009B4E
:1091D4009B88012BB4D90A23184607B05DF804FB19
:1091E4004C56002078560020A856002000B583B0C5
:1091F4000190054B0199184600F0C7FD0346184637
:1092040003B05DF804FB00BF6856002000B583B0CE
:109214000190044B0199184600F0D0FD00BF03B043
:109224005DF804FB6856002008B50A4B1B68002B48
:1092340004D1094940F27A200AF0F0FE01210548E0
:1092440000F090FE0346002B14BF01230023DBB281
:10925400184608BD54560020ACCD030000B587B0B5
:1092640003900291039B02229A750299039B1A1D93
:10927400002300930423074801F078FB0590059B25
:10928400002B01D1002300E00E23184607B05DF83F
:1092940004FB00BFC049002000B587B003900291D1
:1092A400039B1B69002B01D0032200E00122039BD6
:1092B4009A75029B08331946039B03F10C020023A1
:1092C40000930423064801F051FB0590059B002BF5
:1092D40001D1002300E00E23184607B05DF804FB1B
:1092E400C049002000B587B003900291039B1B780E
:1092F400032B01D1052200E00622039B9A75029BF1
:1093040004331946039B03F108020023009304234A
:10931400064801F02BFB0590059B002B01D100238F
:1093240000E00E23184607B05DF804FBC049002096
:1093340000B587B003900B46ADF80A3003990023BB
:10934400009304230C4A0D4801F010FB0590059B83
:10935400002B01D00E230BE0BDF80A200849134668
:109364009B0013449B000B44103301221A7000230A
:10937400184607B05DF804FB10CE0300C049002076
:109384007856002000B589B0019002AB00221A6023
:109394005A609A60019BDB6802930DF1160202ABDE
:1093A40011461846FFF75AFE0346002B12D0039BC2
:1093B4000693069B9A88019BDA80069B1A88019B78
:1093C4001A81039BBDF8162011461846FFF7B0FF1B
:1093D400079001E00A230793079B184609B05DF83C
:1093E40004FB000000B587B00190019B981D02AA00
:1093F4000D4B0021FFF78CFE0590059B002B08D137
:10940400039B094A928811461846FFF791FF05907D
:1094140004E008220021044813F0C8F9059B18460B
:1094240007B05DF804FB00BFB856002000B587B054
:1094340003900291039B01229A75029B0C331846F8
:10944400039B1A69039BDB889B0000210091014662
:10945400064801F08BFA0590059B002B01D10023EF
:1094640000E00E23184607B05DF804FBC049002055
:1094740082B0184B1B8901339AB2164B1A81154BD3
:1094840000225A80134B00221A730023ADF80630D1
:1094940018E0BDF80620104913469B0013449B00B6
:1094A4000B441A78BDF80630002A0CBF01220022B2
:1094B400D1B2084A13440A469A72BDF80630013301
:1094C400ADF80630BDF80630012BE2D900BF00BF6D
:1094D40002B07047A85600207856002084B001904E
:1094E40000238DF80F300023ADF80C3031E0BDF8C7
:1094F4000C301C4A13449B7A002B25D0BDF80C3049
:10950400184A134400229A72BDF80C2016491346D7
:109514009B0013449B000B440C331B68002B13D19A
:10952400BDF80C20104913469B0013449B000B44C8
:1095340010331B78002B07D0019BBDF80C201A8038
:1095440001238DF80F3008E0BDF80C300133ADF87D
:109554000C30BDF80C30012BC9D99DF80F301846DA
:1095640004B07047A85600207856002008B5084B70
:1095740005221A70074B02229A80064B1B68194673
:1095840000230122044801F0D3FA0346184608BD1B
:10959400A8560020A0560020C049002000B583B082
:1095A400164B5B88ADF80230BDF80220144913460F
:1095B4009B0013449B000B440C331B68002B14D1F9
:1095C4000E4B04221A70BDF802200D4913469B006D
:1095D40013449B000B4404331B68194600230122E7
:1095E400084801F0A5FA019002E0FFF7BFFF0190DF
:1095F400019B184603B05DF804FB00BFA856002089
:1096040078560020C049002000B587B0104B5B6835
:109614000593104B1A680F4B9B889B0013440493CB
:10962400059B5B880333ADF80E30094B03221A7097
:109634000499074B5A68BDF80E309B000020009037
:10964400054801F093F90346184607B05DF804FB9A
:10965400A8560020A0560020C049002000B583B0C1
:109664000A4B5B880A491846FFF7A4FC0346002B03
:1096740003D0FFF7C9FF019002E0FFF78FFF0190CD
:10968400019B184603B05DF804FB00BFA8560020F8
:10969400AC56002008B50A4B06221A70084B5B88AA
:1096A4001946084A0B469B000B449B0013440433A1
:1096B4001B681846FFF76AFC0346184608BD00BF3E
:1096C400A85600207856002008B5054B07221A70CA
:1096D400034B00225A60FFF741FC0346184608BDBD
:1096E400A856002008B50D48FFF7F8FE034683F09E
:1096F4000103DBB2002B0BD0094B00221A70084B7C
:1097040000225A80064B00225A6041F61D5302E0A3
:10971400FFF7A4FF0346184608BD00BFAA56002061
:10972400A856002082B0094B5B680193019B5B88BB
:109734000333ADF80230064B9A88BDF80230134467
:109744009AB2034B9A8000BF02B07047A85600201B
:10975400A056002082B0184B1B680193174B5B88FE
:109764001946174A0B469B000B449B0013440433D1
:109774001B68114A1360114B5B881946104A0B464B
:109784009B000B449B0013440433019A1A600B4B57
:109794005B881946084B9888094A0B469B000B4482
:1097A4009B001344083302461A80034B02229A801A
:1097B40000BF02B0704700BFA0560020A85600208A
:1097C4007856002008B51A4B1B78072B2CD801A219
:1097D40052F823F0F99702002D9802002D98020008
:1097E40005980200119802001D9802001D980200BD
:1097F40025980200FFF73CFE0D4B01221A7014E07D
:10980400FFF790FF0A4B02221A700EE0FFF7A2FF47
:10981400074B06221A7008E0054B07221A7004E071
:10982400034B01221A7000E000BF00BF08BD00BF57
:10983400A856002000B587B0019000910F2305932E
:10984400019B002B04D0624B00225A600123BBE031
:10985400009B1B79032B00F2AB8001A252F823F08A
:109864007598020083980200119902003199020050
:10987400009B01221A71FFF771FB05909BE0002306
:109884008DF813300023ADF810302BE0BDF8102014
:10989400504913469B0013449B000B441B78022B36
:1098A4001BD1BDF810204B4913469B0013449B0069
:1098B4000B4400221A7001238DF81330BDF81020D8
:1098C400444913469B0013449B000B4404331B6818
:1098D4001846FFF75BFB059008E0BDF81030013334
:1098E400ADF81030BDF81030012BCFD99DF81330EE
:1098F40083F00103DBB2002B5CD0354B01221A70DC
:10990400334B00225A6041F61D535DE0009B002258
:109914001A71314B02229A802F4B1B68194600237F
:1099240001222E4801F004F9059044E0009B002236
:109934001A71294B1B681846FFF728FB0590284B22
:109944005B88ADF80E30244B1B680293BDF80E20E3
:10995400204913469B0013449B000B4404331B68AB
:109964001D4A1360BDF80E201A4913469B00134488
:109974009B000B440433029A1A60BDF80E20164B68
:109984009888144913469B0013449B000B440833E6
:1099940002461A80104B02229A80BDF80E200D490F
:1099A40013469B0013449B000B4400221A7002E0F0
:1099B40000BF00E000BF059B002B04D0044B002235
:1099C4005A600E2300E00023184607B05DF804FB3C
:1099D4004C56002078560020A0560020C049002094
:1099E400A856002000B587B001900091009B9B8A87
:1099F4001A4613469B0013449B003A4A13440493AB
:109A0400019B002B05D000990498FFF789FA0123E4
:109A140063E0049B5A68049B1B899B0013440393D3
:109A2400009B9B7D062B4DD801A252F823F000BF6A
:109A3400779A02009B9A0200839A02008F9A02008E
:109A4400519A0200A79A0200C19A0200264B0022F2
:109A54005A60009B9B69244A136024492248FFF7FB
:109A6400FDFA034683F00103DBB2002B01D00A2385
:109A740033E003990098FFF7F1FB059025E0039983
:109A84000098FFF709FC05901FE003990098FFF781
:109A9400CDFC059019E003990098FFF723FC05908D
:109AA40013E0009B06229A750F4B5B680F4A1288DD
:109AB40011461846FFF73CFC059006E041F61D539D
:109AC400059302E00F23059300BF059B002B03D0F1
:109AD40000990498FFF724FA059B184607B05DF82F
:109AE40004FB00BF78560020C0560020CC5600204E
:109AF40000B585B001900091019B002B01D001239A
:109B040026E0009B1B79022B19D0022B1BDC002BB7
:109B140002D0012B08D016E0009B02221A71009893
:109B2400FFF730FC039012E00098FFF75BFC039012
:109B3400039B0A2B0AD141F61D53039306E041F619
:109B44001D53039303E00F23039300E000BF039B23
:109B5400184605B05DF804FB00B585B00190019B83
:109B6400002B01D001233BE01F4B1B7B002B03D0B8
:109B74001D4B00221A7301E0FFF724FE1A4B1B78D9
:109B8400013B062B28D801A252F823F0AD9B02001A
:109B9400B59B0200BD9B0200C59B0200DD9B020039
:109BA400CD9B0200D59B0200FFF79CFD039016E0BD
:109BB400FFF754FD039012E0FFF726FD03900EE03B
:109BC400FFF7ECFC03900AE0FFF764FD039006E066
:109BD400FFF77AFD039002E00F23039300BF039B7A
:109BE400184605B05DF804FBA856002000B589B0FE
:109BF40001903F4B1B68002B05D13E48FFF7F6FA56
:109C040003463B4A13603A4B1B68002B04D13A4984
:109C140040F282500AF002FA354B1B681B78013B74
:109C2400052B2CD801A252F823F000BF499C020056
:109C3400599C0200599C0200699C0200699C020024
:109C4400799C02002A4B1B6819460198FFF7F2FD24
:109C5400019017E0264B1B6819460198FFF7C2FED6
:109C640001900FE0224B1B6819460198FFF740FF53
:109C7400019007E00198FFF76FFF019002E00F23C6
:109C8400019300BF019B002B2BD003AB00221A6071
:109C94005A609A60DA601A61019B41F61D52934240
:109CA40001D0019B00E000230493114B1B6803AA1D
:109CB40011461846FFF726F803AB1846FFF702F8DB
:109CC4000B4B00221A60002301930A48FFF79EFA07
:109CD400FFF7AAFA034683F00103DBB2002B02D19B
:109CE40087E700BF00E000BF00BF09B05DF804FBD8
:109CF400D0560020D4560020ACCD030000B583B06C
:109D04000190019B5B681846FFF770FF00BF03B02A
:109D14005DF804FB86B001900091019B53E8021F9B
:109D24001FFAA1F2D888824202BFBFF32F8F00230B
:109D34000DE0D88902449889824228BF121AC1EAE8
:109D4400024243E802200028E8D14FF001038DF8D5
:109D54000F30059002910492029A009B1A609DF8BC
:109D64000F30DBB2184606B0704784B001900199F9
:109D740051E8023FC3EA234341E80232002AF7D103
:109D84000392029300BF04B0704700B585B0019000
:109D94000091009B19460198FFF7BCFF0346002B76
:109DA40007D0019B1B68009A528813440393039BBA
:109DB40000E00023184605B05DF804FB00B583B04D
:109DC40001900091009B1A88009B5B889A4204D101
:109DD4000198FFF7CAFF012300E00023184603B0EF
:109DE4005DF804FB00B585B001900091009B5B0910
:109DF4009B00019A1A44009B03F01F03012101FAFE
:109E040003F31946104600F04DF8039000BF05B067
:109E14005DF804FB00B585B001900091009B5B09DF
:109E24009B00019A1A44009B03F01F03012101FACD
:109E340003F3DB431946104600F064F8039000BFB7
:109E440005B05DF804FB82B001900091009B5B09B2
:109E54009B00019A13441A68009B03F01F0322FA23
:109E640003F303F00103002B14BF01230023DBB22F
:109E7400184602B0704710B487B001900091019B5E
:109E8400009A53E8004F104643E8000191F0000F98
:109E9400F7D1059404900391059B184607B05DF82B
:109EA400044B704710B487B001900091019B009A55
:109EB40053E8004F44EA020043E8000191F0000F28
:109EC400F6D1059404900391049B184607B05DF8FD
:109ED400044B704710B487B001900091019B009A25
:109EE40053E8004F04EA020043E8000191F0000F38
:109EF400F6D1059404900391059B184607B05DF8CC
:109F0400044B704710B487B001900091019B009AF4
:109F140053E8004F04EA020043E8000191F0000F07
:109F2400F6D1059404900391049B184607B05DF89C
:109F3400044B704710B487B001900091019B009AC4
:109F440053E8004F04EB020043E8000191F0000FD6
:109F5400F6D1059404900391049B184607B05DF86C
:109F6400044B704710B487B001900091019B009A94
:109F740053E8004FA4EB020043E8000191F0000F06
:109F8400F6D1059404900391049B184607B05DF83C
:109F9400044B704700B583B0019001210198FFF78D
:109FA40081FF0346184603B05DF804FB00B583B097
:109FB400019000210198FFF78DFF0346184603B076
:109FC4005DF804FB00B583B001900B468DF80330B7
:109FD400019B002B03D10849E8200AF01FF8019BDC
:109FE400DA689DF803300199098A01FB03F31344ED
:109FF400184603B05DF804FB14CE030000B583B02B
:10A0040001900091019B002B03D10849F5200AF02F
:10A0140005F8009B019AD2689B1A019A128AB3FB35
:10A02400F2F3DBB2184603B05DF804FB14CE030070
:10A0340000B585B00190019B002B01D10E234CE0AB
:10A04400019B1B68002B03D12649FF2009F0E6FF82
:10A05400019B5B68002B04D122494FF4807009F006
:10A06400DDFF019B9B68002B04D11E4940F20110C7
:10A0740009F0D4FF019BDB68002B04D119494FF48C
:10A08400817009F0CBFF019B1B8A002B04D1154979
:10A0940040F2031009F0C2FF019B9A68019B5B68C0
:10A0A400D31A8DF80F30019B1B68019A52681A600D
:10A0B40007E0019B1A681368591C11609DF80F2072
:10A0C4001A709DF80F305A1E8DF80F20002BF0D116
:10A0D400019B1B6800221A710023184605B05DF825
:10A0E40004FB00BF14CE030000B585B00190019BB2
:10A0F400002B04D11F494FF4927009F08FFF002305
:10A10400039300238DF80A300DF10A031846FEF775
:10A114007FFD019B1B681A68019B5B689A421FD9EB
:10A12400019B1B681A68013A1A601B681B78194660
:10A134000198FFF747FF0390019B9A68019B1B68F6
:10A144001B68D31A8DF80B30019B1B681B799DF893
:10A154000B209A4204D9019B1B689DF80B201A71AD
:10A164009DF80A301846FEF769FD039B184605B0B2
:10A174005DF804FB14CE030010B584B00190009187
:10A18400019B002B04D1154940F2471009F046FF0A
:10A19400009B002B04D111494FF4A47009F03EFF39
:10A1A400009B039300238DF80B300DF10B0318462D
:10A1B400FEF72EFD019B1B681C68621C1A60039944
:10A1C4000198FFF71BFF034623709DF80B301846D8
:10A1D400FEF734FD00BF04B010BD00BF14CE030071
:10A1E40000B583B00190019B002B03D10C493120B1
:10A1F40009F014FF019B9B68002B0CD0019B5B6949
:10A20400019A1069019A1168019A92689847019B12
:10A2140000229A6000E000BF03B05DF804FB00BFB9
:10A2240070CE03000EB400B584B00190019B002BE6
:10A2340003D11849422009F0F1FE019B5B69002B10
:10A2440003D11449432009F0E9FE019B1B68002B4C
:10A2540003D11049442009F0E1FE019B5B68002B07
:10A2640003D10C49452009F0D9FE059B002B0AD0E7
:10A274000023039306AB039303AB1A460599019895
:10A2840000F0B0F900E000BF04B05DF804EB03B0E7
:10A29400704700BF70CE030000B583B001900B4639
:10A2A4008DF80330019B1A68019B9B68581C019927
:10A2B400886013449DF803201A70019B9A68019BDF
:10A2C4005B689A4202D30198FFF78AFF00BF03B08C
:10A2D4005DF804FB00B587B00390029101920093EE
:10A2E40000230593009B03F00103002B24D00BE013
:10A2F400029B01330293059B013305939DF81330B0
:10A3040019460398FFF7C8FF029B1B788DF813309A
:10A314009DF81330002BEBD106E0019B013B019328
:10A3240020210398FFF7B8FF019A059B9A422ED982
:10A33400019B002BF1D12AE0029B002B0BD0029849
:10A3440012F089FA059006E0019B013B019320215C
:10A354000398FFF7A1FF019A059B9A420FD9019B2D
:10A36400002BF1D10BE0029B01330293059B0133D7
:10A3740005939DF8133019460398FFF78DFF029B50
:10A384001B788DF813309DF81330002BEBD100BFF0
:10A3940007B05DF804FB000000B589B0039002919A
:10A3A40001920093029B07930123069307E0079A07
:10A3B400019BB2FBF3F30793069B01330693079AC1
:10A3C400019B9A42F3D2009A069B9A4201D9009BC0
:10A3D40006930B9B03F00103002B22D10A9B002B55
:10A3E4001FD00B9B03F00203002B06D0009B002B15
:10A3F40003D130238DF8173002E020238DF8173075
:10A4040008E00A9B013B0A939DF81730194603980C
:10A41400FFF742FF0A9B002B03D0069A0A9B9A423D
:10A42400EFD301230793009B012B03D9009B013B2E
:10A43400009309E0029A079BB2FBF3F30493049A96
:10A44400019B9A4200D205E0079B019A02FB03F3A9
:10A454000793E8E7029A079BB2FBF3F30493049B88
:10A46400079A02FB03F3029AD31A0293154A049B38
:10A4740013441B7819460398FFF70EFF079A019BB4
:10A48400B2FBF3F30793079B002BE3D10B9B03F081
:10A494000103002B11D00A9B002B0ED006E00A9B6F
:10A4A400013B0A9320210398FFF7F6FE0A9B002B39
:10A4B40003D0069A0A9B9A42F1D300BF09B05DF813
:10A4C40004FB00BF20CF030000B589B005900491C0
:10A4D40003920293049B002BB8BF5B4206930123B3
:10A4E400079307E0039B069A92FBF3F30693079BFB
:10A4F40001330793039B069A9A42F3DA029A079B65
:10A504009A4201D9029B07930A9B002B0AD0049B11
:10A51400002B04DB0B9B03F00403002B02D00A9BEB
:10A52400013B0A930B9B03F00203002B02D0029B16
:10A53400002B16D00B9B03F00103002B11D10A9BB7
:10A54400002B0ED006E00A9B013B0A9320210598BC
:10A55400FFF7A2FE0A9B002B03D0079A0A9B9A429C
:10A56400F1D3049B002B07DA049B5B4204932D2157
:10A574000598FFF791FE08E00B9B03F00403002B02
:10A5840003D02B210598FFF787FE0B9B03F00203F2
:10A59400002B19D00B9B03F00103002B14D1029B59
:10A5A400002B11D10A9B002B0ED006E00A9B013B25
:10A5B4000A9330210598FFF76FFE0A9B002B03D006
:10A5C400079A0A9B9A42F1D304990B9B01930A9B25
:10A5D4000093029B039A0598FFF7DEFE00BF09B0C3
:10A5E4005DF804FB00B58FB0059004910392059BC0
:10A5F400002B04D1B6494FF4A27009F00FFD059B5E
:10A604005B69002B04D1B2494FF4A37009F006FD35
:10A61400059B1B68002B04D1AD4940F2471009F09B
:10A62400FDFC059B5B68002B04D1A9494FF4A47081
:10A6340009F0F4FC049B002B00F09381049B1B782D
:10A644008DF83730049B013304939DF83730002B89
:10A6540000F07E819DF83730252B40F06D8100237A
:10A664000A9301230C93049B1B788DF837309DF8D3
:10A674003730302B0DD0302B1BDC2B2B11D02D2B56
:10A6840017D10A9B43F001030A93049B01330493FB
:10A6940012E00A9B43F002030A93049B01330493E0
:10A6A4000AE00A9B43F004030A93049B01330493D6
:10A6B40002E000230C9300BF0C9B002BD3D100239A
:10A6C40009939DF837302A2B0CD1039B1B68191D65
:10A6D400039A11601B68099A13440993049B01337C
:10A6E40004931AE0049B1B788DF837309DF83730BB
:10A6F4002F2B12D99DF83730392B0ED8049B0133F8
:10A704000493099A13469B0013445B001A469DF870
:10A7140037301344303B0993D3E700230B93049B56
:10A724001B788DF837309DF837302E2B1DD1049BC4
:10A7340001330493049B1B788DF837309DF8373030
:10A744002F2B12D99DF83730392B0ED8049B0133A7
:10A7540004930B9A13469B0013445B001A469DF81E
:10A7640037301344303B0B93E4E7049B1B788DF89C
:10A7740037309DF837306C2B03D09DF83730682B79
:10A7840007D1049B01330493049B1B788DF8373065
:10A79400EFE79DF83730252B00F0C480252BC0F25D
:10A7A400C680782B00F3C380582BC0F2C080583B7E
:10A7B400202B00F2BC8001A252F823F0AFA80200C3
:10A7C40033A9020033A9020033A9020033A902000D
:10A7D40033A9020033A9020033A9020033A90200FD
:10A7E40033A9020033A9020045A8020067A80200A9
:10A7F40033A9020033A9020033A9020033A90200DD
:10A8040067A8020033A9020033A9020033A9020099
:10A8140033A9020033A9020033A90200F5A80200FB
:10A8240033A9020033A90200D9A8020033A9020007
:10A834008BA8020033A9020033A90200AFA80200CA
:10A84400039B1B68191D039A11601B680C930C9BD6
:10A854008DF81F309DF81F3019460598FFF71CFD31
:10A8640066E0039B1B68191D039A11601B680C9317
:10A874000A9B0193099B00930B9B0A220C99059850
:10A88400FFF722FE54E0039B1B68191D039A116015
:10A894001B680C930C990A9B0193099B00930B9BD7
:10A8A4000A220598FFF778FD42E0039B1B68191DF7
:10A8B400039A11601B680C930C990A9B0193099BE2
:10A8C40000930B9B10220598FFF766FD30E000BF54
:10A8D400C4CE0300039B1B68191D039A11601B68F7
:10A8E40008930A9B099A08990598FFF7F3FC1FE05F
:10A8F400039B1B68191D039A11601B680C9330217C
:10A904000598FFF7C9FC78210598FFF7C5FC0C9959
:10A914000023019308230093082310220598FFF7CE
:10A924003BFD05E025210598FFF7B6FC00E000BFDC
:10A93400049B0133049305E09DF8373019460598CC
:10A94400FFF7AAFC049B1B78002B7FF477AE00E092
:10A9540000BF059B1B7B002B04D00598FFF740FC30
:10A9640000E000BF0FB05DF804FB00BF10B586B077
:10A974000590049103920293059B002B10D1604A29
:10A98400604BD31ADB081B0443F001005E4A5F49A5
:10A994000E2300930B465E49FCF7DFF90E23ABE070
:10A9A400039B002B10D1564A564BD31ADB081B04C9
:10A9B40043F00100574A55490E2300930B4654496E
:10A9C400FCF7CBF90E2397E0059B1B68002B10D1F5
:10A9D4004B4A4C4BD31ADB081B0443F001004E4A8C
:10A9E4004A49082300930B464949FCF7B6F9082362
:10A9F40082E0029B002B10D1414A424BD31ADB0860
:10AA04001B0443F00100454A4049092300930B46C7
:10AA14003F49FCF7A2F909236EE0059B5B685A687D
:10AA2400029BB3FBF2F102FB01F29B1A002B10D044
:10AA3400334A344BD31ADB081B0443F00100384A71
:10AA44003249092300930B463149FCF786F909235F
:10AA540052E0049800F01EF90346002B10D1284A56
:10AA6400284BD31ADB081B0443F001002D4A274965
:10AA7400102300930B462649FCF76FF910233BE0A3
:10AA8400039B184600F006F90346002B10D11C4A1C
:10AA94001C4BD31ADB081B0443F00100224A1B4958
:10AAA400102300930B461A49FCF757F9102323E0AF
:10AAB400029A0499059800F0D3F80346002B10D1AC
:10AAC4000F4A104BD31ADB081B0443F00100174A4A
:10AAD4000E49102300930B460D49FCF73EF9102351
:10AAE4000AE0059B1B68DC68089B0093029B039AA1
:10AAF40004990598A0470346184606B010BD00BF48
:10AB0400F0C9030058C9030040CF0300E4D0030098
:10AB140048CF0300D4CF03007CCF030090CF0300C1
:10AB2400DCCF030008D0030020D0030044D003008E
:10AB340010B586B00590049103920293059B002BF7
:10AB440010D13E4A3E4BD31ADB081B0443F00100EC
:10AB54003C4A3D490E2300930B463C49FCF7FDF863
:10AB64000E2368E0059B1B68002B10D1334A344B3D
:10AB7400D31ADB081B0443F00100354A3249082389
:10AB840000930B463149FCF7E8F8082353E0039B94
:10AB9400002B10D1294A2A4BD31ADB081B0443F09B
:10ABA40001002C4A2849092300930B462749FCF746
:10ABB400D4F809233FE00499059800F078F8034697
:10ABC400002B10D11D4A1E4BD31ADB081B0443F083
:10ABD4000100214A1C49102300930B461B49FCF732
:10ABE400BCF8102327E0059B5B681B68039A02FBF3
:10ABF40003F31A460499059800F032F80346002B33
:10AC040010D10E4A0E4BD31ADB081B0443F001008B
:10AC1400124A0D49102300930B460C49FCF79DF88A
:10AC2400102308E0059B1B681C69029B039A049986
:10AC34000598A0470346184606B010BDF0C90300A6
:10AC440058C9030040CF0300F8D0030048CF0300E5
:10AC54007CCF030090CF03006CD0030094D003009A
:10AC640084B0039002910192039BDB68029A9A429A
:10AC740009D3029A019B13445A1E039B1B699A42EF
:10AC840001D8012300E0002303F00103DBB21846DE
:10AC940004B0704782B00190019B03F00303002BC2
:10ACA4000CBF01230023DBB2184602B0704782B008
:10ACB40001900091019B5B681B685A1E009B134026
:10ACC400002B0CBF01230023DBB2184602B07047EF
:10ACD40029DF704700BF184628DF704700BF1846B9
:10ACE40000B589B001900091019B1B689B68002B03
:10ACF40035D002AB00221A605A609A60DA601A6199
:10AD04005A61009B0393019B9B680793019B1B79EA
:10AD1400002B02D0012B0DD01AE001238DF808304E
:10AD2400019B1B690493019BDB680593019B5B6991
:10AD340006930DE002238DF80830019BDB684FF485
:10AD4400805202FB03F30493019B5B69069300BFEB
:10AD5400019B1B689B6802AA1046984700E000BF4D
:10AD640009B05DF804FB00B587B00190019B5A69F6
:10AD7400019B9B69D31AB3F5805F28BF4FF48053BE
:10AD840005930422059BB3FBF2F3012B38BF012387
:10AD94000593019B1A69019B9B6913440493019BCE
:10ADA400DB681A46019B9B6913440393059A039934
:10ADB4000498FFF78DFF0346184607B05DF804FBBF
:10ADC40000B583B00190019BDA68019B1B691344B1
:10ADD4001846FFF781FF0346184603B05DF804FBED
:10ADE40008B5034B03491846FEF7E8FF00BF08BD4A
:10ADF400D85600200057002008B5084B08491846CB
:10AE0400FEF7C3FF0346074A1360064B1B68002B7B
:10AE140014BF01230023DBB2184608BDD856002016
:10AE240000570020FC56002000B583B02A4B1B7A43
:10AE3400002B0BD1FFF7E0FF034683F00103DBB2E5
:10AE4400002B03D0244B00225A6042E0224B022202
:10AE54001A72224B1B681B79002B02D0012B07D0DE
:10AE64000DE01E4B1B681846FFF77DFF019009E0BB
:10AE74001A4B1B681846FFF7A3FF019002E0032357
:10AE8400019300BF019B002B03D0019B112B0CD01D
:10AE94000FE0114B1B7C83F00103DBB2002B17D0B6
:10AEA4000021022000F06EF812E00B4B01221A720E
:10AEB4000FE00A4B1B6803211846FFF711FF064BEE
:10AEC40000221A72044B00225A60FFF789FF00E047
:10AED40000BF03B05DF804FBE8560020FC560020D8
:10AEE40084B001901B4B0022DA60019B1B79002B7C
:10AEF40002D0012B19D028E0019B5A69019B9B6960
:10AF0400D31AB3F5805F28BF4FF480530393019B9A
:10AF14009A69039B1A44019B9A61019B9A69019B5C
:10AF24005B699A420ED1012310E0019B1B695A1CF4
:10AF3400019B1A61019B1A69019B5B699A4203D1C7
:10AF4400012303E000BF00E000BF0023184604B063
:10AF5400704700BFE856002082B00190084BDB68C0
:10AF64000133074AD360064BDB68082B04D9044B32
:10AF74000022DA60012300E00023184602B0704783
:10AF8400E856002000B585B001900091019B022B8A
:10AF940002D0019B032B48D1274B1B7A022B05D0EF
:10AFA400022B35DC002B42D0012B31E000238DF83D
:10AFB4000F30019B022B03D0019B032B09D011E01E
:10AFC4001E4B1B681846FFF78BFF03468DF80F30A6
:10AFD40008E01A4B1B681846FFF7BEFF03468DF8BE
:10AFE4000F3000BF9DF80F30002B10D0124B002201
:10AFF4001A72124B1A68019B022B01D1002300E044
:10B004000D2319461046FFF76BFEFFF7E9FE00BF5C
:10B01400094B5B7C83F00103DBB2002B02D0FFF70A
:10B0240003FF05E010F056FE02E000BF00E000BFA1
:10B0340005B05DF804FB00BFE8560020FC56002074
:10B0440082B0034600918DF80730064B01225A74F2
:10B05400044B1B7A002B0CBF01230023DBB21846E0
:10B0640002B07047E856002000B583B00346009153
:10B074008DF807309DF80730012B03D09DF8073079
:10B08400032B0DD1084B00225A749DF80730012B75
:10B094000CBF01230023DAB2034B1A74FFF7C4FE7A
:10B0A40000BF03B05DF804FBE856002000B583B090
:10B0B40001900198FEF7BCFF0346184603B05DF803
:10B0C40004FB00B58BB001900091019B1B8A043BEB
:10B0D4000793009A079B1344DA1C079BB2FBF3F314
:10B0E4008DF81B300198FEF7FFFF0590059B002BA0
:10B0F40001D1002338E0059B00221A71059B01222F
:10B104005A71079B9AB2059BDA80059B09939DF8B7
:10B114001B30013B0493099B019A1A600023089396
:10B124001DE00198FEF7E0FF0390039B002B0ED077
:10B13400059B5B790133DAB2059B5A71099B039A2B
:10B144001A60039B019A1A60039B099304E0059813
:10B1540000F00EF8002307E0089B01330893089AD7
:10B16400049B9A42DDD3059B18460BB05DF804FBA3
:10B1740000B58BB00190019B0793079B5B798DF819
:10B184001B30019B08939DF81B30013B0593002362
:10B19400099305E0089B1B680893099B01330993F5
:10B1A400099A059B9A42F5D3089B1B680493019B5B
:10B1B4000893002309930BE0089B1B6803930899E9
:10B1C4000498FEF7D9FF039B0893099B0133099365
:10B1D4009DF81B30099A9A42EED300BF00BF0BB012
:10B1E4005DF804FB00B585B00190019B0393039BBC
:10B1F400043301211846FEF79DFE00BF05B05DF83B
:10B2040004FB00B587B00190019B0593059B0433B3
:10B2140001211846FEF7A6FE0346039303AB0493ED
:10B22400049B1B78002B02D10198FFF7A1FF00BFFC
:10B2340007B05DF804FB000000B591B003900291E3
:10B2440001920093039B002B03D14349B62008F0DD
:10B25400E5FE039B0993039B0F93099BDB881A4626
:10B26400099B5B7903FB02F3043B0893009A089B58
:10B274009A4203D33849C42008F0D0FE099BDB88E6
:10B284000793009B1A1D079BB2FBF3F30E93009BDD
:10B294000433079AB3FBF2F2079901FB02F29B1AFB
:10B2A4000D93019B1A68009B1344089A9A4203D297
:10B2B400089A009BD31A01E0019B1B680C93019B25
:10B2C4000C9A1A6005E00F9B1B680F930E9B013BC1
:10B2D4000E930E9B002BF6D100230B93079A0D9B24
:10B2E400D31A0A930A9A0C9B934228BF13460A93D3
:10B2F4002AE0029A0B9B134406930F9A0D9B134466
:10B30400043305939DF84830002B05D00A9A05991B
:10B31400069811F022FA04E00A9A0699059811F0A9
:10B324001CFA00230D930F9B1B680F930C9A0A9B26
:10B33400D31A0C930B9A0A9B13440B93079A0C9BF6
:10B34400934228BF13460A930C9B002BD1D100BF14
:10B3540000BF11B05DF804FB0CD1030000B589B047
:10B364000590049103920293039B079307AA002379
:10B374000093029B04990598FFF75EFF079B039ACD
:10B384009A4203D00349F62008F048FE00BF09B0F2
:10B394005DF804FB0CD1030000B589B0059004915D
:10B3A40003920293039B079307AA01230093029B32
:10B3B40004990598FFF740FF079B039A9A4204D02B
:10B3C40004494FF4807008F029FE00BF09B05DF80D
:10B3D40004FB00BF0CD1030082B003468DF8073094
:10B3E4009DF8073003F01F0206499DF907305B09F9
:10B3F400012000FA02F2603341F8232000BF02B0BA
:10B40400704700BF00E100E000B583B00190019BEC
:10B41400002B03D10649722008F000FE019B002294
:10B424001A60BFF35F8F00BF00BF03B05DF804FB79
:10B43400BCD1030041DF704700BF184600B585B09A
:10B4440000238DF803300DF103031846FDF7E0FBEC
:10B45400F1EE103A0193019B0393039B23F09F03A6
:10B464000293029BE1EE103A00BFBFF35F8F00BF6F
:10B474002620FFF7B1FF9DF803301846FDF7DEFBE9
:10B48400039B03F00703002B03D004497D2008F03D
:10B49400C5FD00BF05B05DF804FB00BF00D203008A
:10B4A40008B5064B00221A700548FFF7ADFF0549A1
:10B4B400054800F04DF80023184608BD0857002041
:10B4C4000457002060D203000C57002000B583B05D
:10B4D400FFF7B4FF10F01AFC0346002B0ED0FFF761
:10B4E400A9FF0190019B002B0ED0019B022B0BD0D6
:10B4F40007494FF4B07008F091FD05E020BF00BF8C
:10B5040040BF00BF20BF00BF00BF03B05DF804FB15
:10B5140000D2030082B00190019B9B6800229A60D4
:10B52400019B9B6800221A61019B9B6800225A615F
:10B53400019B9B680022DA60019B9B6800225A6091
:10B54400019B9B6800221A6000BF02B07047000094
:10B5540000B583B001900091019B002B03D11049E9
:10B56400502008F05BFD009B002B03D10C495120B7
:10B5740008F054FD019B009A1A60019B1B681A682D
:10B58400019B5A60019B5A68019B1B685B689A4245
:10B5940002D1019B00225A6000BF03B05DF804FB96
:10B5A4006CD2030000B583B00190019B002B03D142
:10B5B4001449632008F032FD019B1B68002B03D162
:10B5C4001049642008F02AFD019B5B68002B14D00D
:10B5D400019B5B681A46019B1B689B6813441A46CF
:10B5E400019B5A60019B5A68019B1B685B689A42E5
:10B5F40004D1019B00225A6000E000BF03B05DF853
:10B6040004FB00BF6CD2030000B585B00190019823
:10B6140000F00EF80390039B002B01D0039B00E085
:10B62400024B184605B05DF804FB00BFE4D20300EA
:10B6340086B00190164B0593164B04931FE0049AB1
:10B64400059BD31ADB10DA0F13445B10DB00059A59
:10B6540013440393039B1B680293029A019B9A422F
:10B6640002D9039B04930AE0029A019B9A4203D2F3
:10B67400039B0833059302E0039B5B6804E0059A8F
:10B68400049B9A42DBD30023184606B0704700BFE0
:10B69400E4D603000CD80300BFF34F8F00BF074B61
:10B6A400DB6803F4E0620549054B1343CB60BFF349
:10B6B4004F8F00BF00BF00BFFCE700BF00ED00E0FC
:10B6C4000400FA05024B034A1A6000BF704700BF2A
:10B6D400144A00200090D00308B500F027F903466F
:10B6E400002B0ED04FF080430022C3F80C214FF002
:10B6F40080430022C3F810214FF080430022C3F896
:10B70400382500F037F90346002B76D04FF08053EC
:10B714007D4AD3F80434C2F820354FF080537A4A76
:10B72400D3F80834C2F824354FF08053764AD3F85E
:10B734000C34C2F828354FF08053734AD3F81034D0
:10B74400C2F82C354FF080536F4AD3F81434C2F842
:10B7540030354FF080536C4AD3F81834C2F834357E
:10B764004FF08053684AD3F81C34C2F840354FF088
:10B774008053654AD3F82034C2F844354FF08053DF
:10B78400614AD3F82434C2F848354FF080535E4AF6
:10B79400D3F82834C2F84C354FF080535A4AD3F8C2
:10B7A4002C34C2F850354FF08053574AD3F8303414
:10B7B400C2F854354FF08053534AD3F83434C2F8A6
:10B7C40060354FF08053504AD3F83834C2F86435AA
:10B7D4004FF080534C4AD3F83C34C2F868354FF0EC
:10B7E4008053494AD3F84034C2F86C354FF0805343
:10B7F400454AD3F84434C2F8703500F0DFF8034604
:10B80400002B02D0414B424A1A6000F0E9F803468B
:10B81400002B03D03F4BFB22C3F8182500F0F2F8AD
:10B824000346002B0AD03C4B1B6823F00F023B4B12
:10B834001B6803F00F03384913430B6000F0F4F85E
:10B844000346002B03D0364B4FF400721A6000F00D
:10B85400FDF80346002B0DD04FF08043D3F800349D
:10B8640003F00103002B05D04FF080436FF0010279
:10B87400C3F800242B4BD3F888302A4A43F47003CE
:10B88400C2F88830BFF34F8F00BFBFF36F8F00BF84
:10B894004FF01023D3F80032002B05DB4FF01023B8
:10B8A400D3F80432002B2BDA1F4B0122C3F80425F2
:10B8B40000BF1D4BD3F80034002BFAD04FF01023F7
:10B8C4001222C3F8002200BF174BD3F80034002B18
:10B8D400FAD04FF010231222C3F8042200BF124BF7
:10B8E400D3F80034002BFAD00F4B0022C3F8042500
:10B8F40000BF0D4BD3F80034002BFAD0FFF7CCFE79
:10B90400FFF7E0FE00BF08BD00C000408C560040B9
:10B914004881030000F00040E40E0040580200108B
:10B924004096024000ED00E000E001400F4B1B6830
:10B93400082B17D10E4B1B68002B01D1012312E0F9
:10B944000B4B1B68012B01D101230CE0084B1B6836
:10B95400022B01D1012306E0054B1B68032B01D107
:10B96400012300E001231846704700BF3001001096
:10B97400340100100F4B1B68082B17D10E4B1B68AA
:10B98400002B01D1012312E00B4B1B68012B01D1C9
:10B9940001230CE0084B1B68022B01D1012306E0B4
:10B9A400054B1B68032B01D1012300E0012318463A
:10B9B400704700BF3001001034010010064B1B68B3
:10B9C400082B05D1054B1B68002B01D1012300E096
:10B9D40000231846704700BF3001001034010010E6
:10B9E400064B1B68082B05D1054B1B68002B01D1A6
:10B9F400012300E000231846704700BF3001001007
:10BA040034010010064B1B68082B05D1054B1B683D
:10BA1400002B01D1012300E000231846704700BF2A
:10BA24003001001034010010064B1B68082B05D1AF
:10BA3400054B1B68002B01D1012300E000231846AD
:10BA4400704700BF30010010340100100F4B1B6819
:10BA5400082B17D10E4B1B68002B01D1012312E0D8
:10BA64000B4B1B68012B01D101230CE0084B1B6815
:10BA7400022B01D1012306E0054B1B68032B01D1E6
:10BA8400012300E001231846704700BF3001001075
:10BA94003401001000B583B00190019B1B682F2B6B
:10BAA40004D90B494FF4F37008F0B8FA019B1B68F2
:10BAB4001F2B02D84FF0A04306E0019B1B6803F044
:10BAC4001F02019B1A60034B184603B05DF804FB88
